:100000000C945D000C9485000C9485000C94850084
:100010000C9485000C9485000C9485000C9485004C
:100020000C9485000C9485000C9485000C9485003C
:100030000C9485000C9485000C9485000C9485002C
:100040000C94FE030C9485000C942B030C945D031C
:100050000C9485000C9485000C9485000C9485000C
:100060000C9485000C94850000000008000201003B
:100070000003040700000000000000000102040863
:100080001020408001020408102001020408102002
:10009000040404040404040402020202020203032E
:1000A0000303030300000000250028002B000000CC
:1000B0000000240027002A008D0311241FBECFEF6B
:1000C000D8E0DEBFCDBF11E0A0E0B1E0E6E5FBE0A7
:1000D00002C005900D92A231B107D9F721E0A2E14B
:1000E000B1E001C01D92A03CB207E1F710E0CDE500
:1000F000D0E004C02197FE010E94A305CC35D107B2
:10010000C9F70E94EF030C94A9050C940000CF934B
:10011000DF93EC01FB01828193819B838A8384813D
:100120009581A681B7818C839D83AE83BF838085B3
:100130009185A285B38588879987AA87BB8784E044
:1001400091E099838883848595859D878C878685B2
:1001500097859F878E8780899189998B888B8289E3
:1001600093899B8B8A8B848995899D8B8C8B8689BF
:1001700097899F8B8E8B808D888F818D898F828DC3
:100180008A8F838D8B8F848D8C8F80E47D96DE01AA
:100190005D9601900D928A95E1F7DE01A35ABF4F5B
:1001A000FB01E35AFF4F80E401900D928A95E1F73D
:1001B000DF91CF910895CF93DF93EC01CE010E94A0
:1001C000EF01892B21F0CE010E940902F7CFDF91C8
:1001D000CF910895CF92DF92EF92FF921F93CF932A
:1001E000DF93CDB7DEB7CD59D1090FB6F894DEBF96
:1001F0000FBECDBF0E9448046B017C016AE171E033
:10020000CE0101960E948700CE0101960E94DB007C
:1002100080E1C80E87E2D81EE11CF11C0E94480450
:100220006C157D058E059F05D8F010E06AE171E040
:10023000CE0101960E948700CE0101960E94DB004C
:10024000812FC356DF4F0FB6F894DEBF0FBECDBF70
:10025000DF91CF911F91FF90EF90DF90CF900895A5
:1002600061E48AE191E00E94E70364EF71E080E0DD
:1002700090E00E9479048AE191E00E94EF01892BCD
:1002800069F28AE191E00E9409028A35910531F60E
:1002900068EC70E080E090E00E9479046AE58AE111
:1002A00091E00E94E70362E370E080E090E00E944A
:1002B000790411E0BBCF26E040E052EC61E070E051
:1002C0008AE191E00E94C90264EF71E080E090E071
:1002D0000E94790461E08DE00E94160561E08DE0E6
:1002E0000E94520564EF71E080E090E00E94790482
:1002F00060E08DE00E94520564EF71E080E090E0E4
:100300000E94790461E08DE00E94520564EF71E083
:1003100080E090E00E94790460E08DE00E94520548
:1003200064EF71E080E090E00E94790461E08DE08C
:100330000E94520564EF71E080E090E00E94790431
:1003400060E08DE00E94520564EF71E080E090E093
:100350000E94790461E08DE00E94520564EF71E033
:1003600080E090E00E94790460E08DE00E945205F8
:1003700064EF71E080E090E00E9479040E94EA005E
:10038000682F8DE00E94520560E67AEE80E090E0F2
:100390000C9479040F931F930E94480460931601F4
:1003A0007093170180931801909319010E944804DB
:1003B0000091160110911701209118013091190137
:1003C000601B710B820B930B6093120170931301EE
:1003D00080931401909315011F910F910895FC01D2
:1003E000918D228D892F90E0805C9F4F821B910917
:1003F0008F7399270895FC01918D828D981731F0A4
:10040000828DE80FF11D858D90E008958FEF9FEFAD
:100410000895FC01918D828D981761F0A28DAE0F29
:10042000BF2FB11D5D968C91928D9F5F9F73928FB0
:1004300090E008958FEF9FEF0895FC01538D448D58
:10044000252F30E0842F90E0821B930B541710F07F
:10045000CF9608950197089583E893E0892B49F09A
:1004600080E090E0892B29F00E94830381110C9495
:1004700000000895FC01A48DA80FB92FB11DA35A47
:10048000BF4F2C91848D90E001968F739927848FB4
:10049000A689B7892C93A089B1898C9183708064D7
:1004A0008C93938D848D981306C00288F389E02D78
:1004B00080818F7D80830895CF93DF93EC01888DB9
:1004C0008823B9F0AA89BB89E889F9898C9185FDCF
:1004D00003C0808186FD0DC00FB607FCF7CF8C915D
:1004E00085FFF2CF808185FFEDCFCE010E943A02D9
:1004F000E9CFDF91CF910895EF92FF920F931F9371
:10050000CF93DF93EC0181E0888F9B8D8C8D9813C6
:100510001AC0E889F989808185FF15C09FB7F894D2
:10052000EE89FF896083E889F9898081837080641E
:1005300080839FBF81E090E0DF91CF911F910F9169
:10054000FF90EF900895F62E0B8D10E00F5F1F4F78
:100550000F731127E02E8C8D8E110CC00FB607FC87
:10056000FACFE889F989808185FFF5CFCE010E9415
:100570003A02F1CFEB8DEC0FFD2FF11DE35AFF4F47
:10058000F0829FB7F8940B8FEA89FB8980818062A3
:10059000CFCFCF92DF92EF92FF921F93CF93DF9353
:1005A000EC016A017B01122FE889F98982E08083DE
:1005B000C11481EED806E104F104A1F060E079E015
:1005C0008DE390E0A70196010E9481052150310939
:1005D000410951095695479537952795211580E191
:1005E000380798F0E889F989108260E874E88EE1AC
:1005F00090E0A70196010E9481052150310941092F
:1006000051095695479537952795EC85FD8530839B
:10061000EE85FF852083188EEC89FD891083EA8999
:10062000FB89808180618083EA89FB898081886081
:100630008083EA89FB89808180688083EA89FB89DD
:1006400080818F7D8083DF91CF911F91FF90EF900C
:10065000DF90CF9008951F920F920FB60F92112442
:100660002F938F939F93EF93FF93E0912A01F09143
:100670002B018081E0913001F091310182FD1BC09E
:100680009081809133018F5F8F73209134018217A5
:1006900041F0E0913301F0E0E65EFE4F958F8093EC
:1006A0003301FF91EF919F918F912F910F900FBE8A
:1006B0000F901F9018958081F4CF1F920F920FB664
:1006C0000F9211242F933F934F935F936F937F93D8
:1006D0008F939F93AF93BF93EF93FF938AE191E042
:1006E0000E943A02FF91EF91BF91AF919F918F913C
:1006F0007F916F915F914F913F912F910F900FBE1E
:100700000F901F9018958AE191E00E94EF0121E07F
:10071000892B09F420E0822F0895EAE1F1E01382A9
:10072000128288EE93E0A0E0B0E084839583A683F4
:10073000B78384E091E09183808385EC90E0958796
:10074000848784EC90E09787868780EC90E0918B9B
:10075000808B81EC90E0938B828B82EC90E0958B88
:10076000848B86EC90E0978B868B118E128E138E85
:10077000148E0895AF92BF92CF92DF92EF92FF92C4
:100780000F931F93CF93DF936C017B018B01040FB9
:10079000151FEB015E01AE18BF08C017D10759F055
:1007A0006991D601ED91FC910190F081E02DC60197
:1007B0000995892B79F7C501DF91CF911F910F9191
:1007C000FF90EF90DF90CF90BF90AF900895DC0145
:1007D000ED91FC910190F081E02D099408950E9423
:1007E000B2040E94EE030E945B01CCE2D2E00E94C0
:1007F000CA012097E1F30E942C02F9CF1F920F92B9
:100800000FB60F9211242F933F938F939F93AF9323
:10081000BF938091B8019091B901A091BA01B091B4
:10082000BB013091B70123E0230F2D3758F5019616
:10083000A11DB11D2093B7018093B8019093B90118
:10084000A093BA01B093BB018091BC019091BD010E
:10085000A091BE01B091BF010196A11DB11D809371
:10086000BC019093BD01A093BE01B093BF01BF91A5
:10087000AF919F918F913F912F910F900FBE0F904D
:100880001F90189526E8230F0296A11DB11DD2CF07
:100890002FB7F8946091B8017091B9018091BA01B5
:1008A0009091BB012FBF08953FB7F8948091BC0190
:1008B0009091BD01A091BE01B091BF0126B5A89B4A
:1008C00005C02F3F19F00196A11DB11D3FBFBA2FE2
:1008D000A92F982F8827BC01CD01620F711D811DA2
:1008E000911D42E0660F771F881F991F4A95D1F727
:1008F00008958F929F92AF92BF92CF92DF92EF9224
:10090000FF926B017C010E9454044B015C01C114F5
:10091000D104E104F104E9F00E9480050E9454042E
:10092000681979098A099B09683E73408105910518
:1009300070F321E0C21AD108E108F10888EE880EB0
:1009400083E0981EA11CB11CC114D104E104F10480
:1009500029F7FF90EF90DF90CF90BF90AF909F90DE
:100960008F900895789484B5826084BD84B5816049
:1009700084BD85B5826085BD85B5816085BDEEE6A7
:10098000F0E0808181608083E1E8F0E01082808186
:1009900082608083808181608083E0E8F0E08081F4
:1009A00081608083E1EBF0E0808184608083E0EB14
:1009B000F0E0808181608083EAE7F0E080818460FC
:1009C0008083808182608083808181608083808158
:1009D000806880831092C1000895833081F028F4EC
:1009E000813099F08230A9F008958730A9F08830DD
:1009F000C9F08430B1F4809180008F7D03C0809174
:100A000080008F7780938000089584B58F7784BDB0
:100A1000089584B58F7DFBCF8091B0008F77809350
:100A2000B00008958091B0008F7DF9CFCF93DF9310
:100A300090E0FC01E458FF4F249180579F4FFC0148
:100A400084918823C9F090E0880F991FFC01E2553A
:100A5000FF4FA591B491FC01EC55FF4FC591D49186
:100A600061110DC09FB7F8948C91209582238C93CF
:100A70008881282328839FBFDF91CF91089562301A
:100A800051F49FB7F8943C91822F809583238C93E7
:100A9000E8812E2BEFCF8FB7F894EC912E2B2C936F
:100AA0008FBFEACF1F93CF93DF93282F30E0F90158
:100AB000E859FF4F8491F901E458FF4FD491F901AF
:100AC000E057FF4FC491CC23A9F0162F81110E944B
:100AD000ED04EC2FF0E0EE0FFF1FEC55FF4FA5915A
:100AE000B4918FB7F894EC91111108C0D095DE2322
:100AF000DC938FBFDF91CF911F910895DE2BF8CF4C
:100B00000895A1E21A2EAA1BBB1BFD010DC0AA1F4E
:100B1000BB1FEE1FFF1FA217B307E407F50720F066
:100B2000A21BB30BE40BF50B661F771F881F991FE1
:100B30001A9469F760957095809590959B01AC012A
:100B4000BD01CF010895EE0FFF1F0590F491E02D38
:060B50000994F894FFCFA8
:100B5600000000007C02BA031D025C02EF010902DC
:020B6600FB0191
:00000001FF
