:100000000C9469020C949A020C949A020C949A0231
:100010000C949A020C949A020C949A020C949A02F0
:100020000C949A020C949A020C949A020C949A02E0
:100030000C949A020C949A020C949A020C949A02D0
:100040000C949A020C949A020C949A020C949A02C0
:100050000C949A020C949A020C949A020C94E40F59
:100060000C949A020C94480C0C947E0C0C949A02FA
:100070000C949A020C949A020C949A020C949A0290
:100080000C949A020C949A020C949A020C949A0280
:100090000C94DF0C0C94150D0C949A020C949A029B
:1000A0000C949A020C949A020C949A020C949A0260
:1000B0000C949A020C949A020C949A020C949A0250
:1000C0000C949A020C949A020C949A020C949A0240
:1000D0000C949A020C949A020C949A020C949A0230
:1000E0000C949A0207634236B79BD8A71A39685610
:1000F00018AEBAAB558C1D3CB7CC5763BD6DEDFD4A
:10010000753EF6177231BF000000803F0C94CF0A95
:100110000C9455110C94A80C0C941C120C94AE1158
:100120000C9424120C9488110C9462110C94C71135
:100130000C9476110C9449120C945D110C942712B6
:100140000C94DD0A0C94A4110C9412120C94D1118D
:100150000C9420120C946C110C9431120C942D12EE
:100160000C9445120C9457120C949A110C94801113
:100170000C94DB110C94C30A0C943F120C94F10AFA
:100180000C9437120C943F0D0C94EF110C94BD118C
:100190000C94490D0C94000B0C94570B0C94770B9A
:1001A0000C944D120C94DA070C943B120C94181218
:1001B0000C94760D0C94E5110C9453120C94901140
:1001C0000C94B20C0C9452125365747570202D204F
:1001D0005265616479005365747570202D20426FFB
:1001E0006F74696E672E2E2E00646F53657276658C
:1001F0007248616E647368616B65202D2048616E82
:10020000647368616B65206661696C656420696E02
:1002100020737465702000646F5365727665724850
:10022000616E647368616B65202D2053756363652F
:100230007366756C2068616E647368616B650064D9
:100240006F53657276657248616E6473616B652089
:100250002D2053746570203200646F53657276658B
:100260007248616E6473616B65202D2053746570F4
:10027000203100646F53657276657248616E6473F5
:10028000616B65202D2053746570203000556E61C0
:10029000626C6520746F20636F6D6D756E6963614C
:1002A000746520746F207468652073637265656E71
:1002B0002C20646F75626C6520636865636B2074C5
:1002C000686520636F6E6E656374696F6E7320740A
:1002D0006F2069740055706461746553657276654A
:1002E00072202D2053637265656E2072656164799A
:1002F00000557064617465536572766572202D20B7
:10030000436F6E656E6374696E6720746F207363EC
:100310007265656E2E2E2E0055706461746553658E
:1003200072766572202D2053637265656E2073743A
:10033000617274696E672E2E2E005570646174654B
:10034000536572766572202D2053637265656E2049
:100350007368757474696E6720646F776E004469A2
:1003600073636F6E656E63744576657279746869E0
:100370006E67202D20446F6E65003A20005241497F
:100380005345202D2D2D204572726F7220003A208A
:10039000005241495345202D2D2D204352495449A7
:1003A00043414C204572726F72200000000A0B021C
:1003B000090C0D0E080703040100000000000000F6
:1003C000000000000000000000000000000000002D
:1003D00000000000000000121110000000000000EA
:1003E000000000000000000000000000000000000D
:1003F0000001021020200808102040102040800238
:10040000010201080402010102040810204080805A
:1004100040201008040201800402018040201008DE
:1004200004020108040201010204081020408001B6
:100430000204081020408005050505070508080886
:1004400008020202020A0A08080404040401010165
:10045000010101010103030303030303030407076D
:10046000070C0C0C0C0C0C0C0C020202020606060B
:1004700006060606060B0B0B0B0B0B0B0B000020E6
:10048000002300260029002C002F0032000001006C
:100490000003010601090100002200250028002BAD
:1004A000002E003100340002010000050108010B9C
:1004B0000100002100240027002A002D0030003315
:1004C0000001010000040107010A0100DA07B20C73
:1004D000490D11241FBECFEFD1E2DEBFCDBF00E03A
:1004E0000CBF12E0A0E0B2E0EEE5F1E300E00BBFEC
:1004F00002C007900D92A438B107D9F724E0A4E810
:10050000B2E001C01D92AD37B207E1F712E0C9E6D3
:10051000D2E000E006C021970109802FFE010E9471
:100520001013C636D10780E00807A9F70E94D50F3F
:100530000C94AD180C940000CF93DF93EC0168810C
:1005400070E08AE00E941D11698170E08CE00E94D9
:100550001D116A8170E08BE0DF91CF910C941D1129
:10056000CF93DF93D62FC42F682F70E08AE00E94CC
:100570001D116D2F70E08CE00E941D116C2F70E03A
:100580008BE0DF91CF910C941D110F931F938091FD
:10059000B8029091B902892B09F443C00E942E1031
:1005A000AB01BC01E091B802F091B9028081918168
:1005B000092E000CAA0BBB0B0091B4021091B502DE
:1005C0002091B6023091B702800F911FA21FB31F76
:1005D00084179507A607B70720F583819F0143E09D
:1005E000849F200D311D1124C90104960E949C0294
:1005F000E091B802F091B9028381282F30E02F5F9B
:100600003F4F92819217130609F074F413820E94EF
:100610002E106093B4027093B5028093B60290934B
:10062000B7021F910F9108958F5F8383F0CFCF9210
:10063000DF92EF92FF920F931F93CF93DF93EC0122
:1006400010E000E0C12CD12C76010C171D0734F509
:1006500087E30E94FA10BC01990F880B990B0E9446
:1006600038142AE038E240EA5BE30E948A1529EE5A
:1006700037EB4FE150E40E94181320EB32E748EECD
:100680005DE30E948A139B01AC01C701B6010E9481
:1006900019136B017C010F5F1F4FD7CFBE01DD0F18
:1006A000880B990B0E9438149B01AC01C701B6015D
:1006B0000E948A136B017C0120E030E0A9010E94B6
:1006C0000F1587FF03C0C12CD12C7601C701B601DD
:1006D000DF91CF911F910F91FF90EF90DF90CF901E
:1006E000089588EC90E00E9417032EE73CE849E368
:1006F0005DE30E948A159B01AC0161E07EED82E71B
:100700009FEB0E9418130895CF92DF92EF92FF9211
:10071000CF93DF9386E30E94FA10EC010E947103ED
:100720006B017C01BE01DD0F880B990B0E94381410
:1007300020E030E048EC51E40E948A1520E030ECE3
:100740004FE754E40E948A1320E030E0A9010E94A0
:100750001913A70196010E941813DF91CF91FF9002
:10076000EF90DF90CF900895CF92DF92EF92FF92BB
:100770000E9484036B017C0120E030E040E551E4FD
:100780000E94851360E087FD0BC020E030E04CE75D
:1007900051E4C701B6010E940F15181644F461E038
:1007A00081E2FF90EF90DF90CF900C949712FF9032
:1007B000EF90DF90CF900895CF92DF92EF92FF926B
:1007C0008AEB92E00E94090922E03BE247E05DE308
:1007D0000E948A152BE433E942E95DE30E94181375
:1007E0006B017C0120E030E0A9010E940F1587FF1A
:1007F00003C0C12CD12C7601C701B601FF90EF9048
:10080000DF90CF90089588E30E94FA10BC01990F01
:10081000880B990B0E943814AB01BC018AEB92E063
:100820000C94AB0861E081E20E94971260E081E3E2
:100830000E94971261E08DE20E94971261E08BE2C4
:100840000E94971261E087E20E94971261E089E2BC
:100850000E94971261E085E20E94971261E083E2B4
:100860000E9497126EE573E086E393E00C94EF0D1F
:10087000CF92DF92EF92FF920F931F93CF93DF936C
:10088000CDB7DEB762970FB6F894DEBF0FBECDBF0F
:10089000182F7B01C090B802D090B90240E060E010
:1008A0008FEF0E94B0021E3109F05BC040E06EE1A4
:1008B0008FEF0E94B0026AE773E0CE0101960E94BA
:1008C000520F6DE773E0CE010D960E94520FBE01EC
:1008D000635F7F4FCE0107960E942F0F6EE1CE011E
:1008E00007960E94C50FBE016F5F7F4F0E94B20F37
:1008F000B7010E94B20FBC0186E393E00E94010E93
:10090000CE0107960E94850ECE010D960E94850E9F
:10091000CE0101960E94850E68EB7BE080E090E0BE
:100920000E945F1080918E02823008F07BC04FEFF2
:1009300060E08FEF0E94B002D092B902C092B8027C
:100940000E94B40362960FB6F894DEBF0FBECDBF0F
:10095000DF91CF911F910F91FF90EF90DF90CF909B
:10096000089586E092E09093B9028093B8020E94C5
:10097000120468EE73E080E090E00E945F100E9435
:10098000B4036EE873E0CE0101960E94520F61E954
:1009900073E0CE010D960E94520FBE01635F7F4F40
:1009A000CE0107960E942F0F612FCE0107960E945D
:1009B000C50FBE016F5F7F4F0E94B20FB7010E944B
:1009C000B20FBC0186E393E00E94010ECE010796B0
:1009D0000E94850ECE010D960E94850ECE010196D5
:1009E0000E94850E60ED77E080E090E00E945F104D
:1009F0000E942E106B017C010E942E10970186012F
:100A000008511C4F2F4F3F4F06171707280739076C
:100A100030F40E94B4030E942E106B017C010E94EE
:100A2000C502EACF4FEF6FEF80E084CFCF93DF9323
:100A3000EC01FB01828193819B838A838481958170
:100A4000A681B7818C839D83AE83BF83808591858A
:100A5000A285B38588879987AA87BB8783E792E0B9
:100A600099838883848595859D878C8786859785DE
:100A70009F878E8780899189998B888B82899389BA
:100A80009B8B8A8B848995899D8B8C8B8689978992
:100A90009F8B8E8B808D888F818D898F828D8A8FA1
:100AA000838D8B8F848D8C8F80E47D96DE015D96A7
:100AB00001900D928A95E1F7DE01A35ABF4FFB0129
:100AC000E35AFF4F80E401900D928A95E1F7DF91A0
:100AD000CF910895CF93DF93EC01CE010E94C30A1A
:100AE000892B21F0CE010E94DD0AF7CFDF91CF9153
:100AF0000895CF92DF92EF92FF921F93CF93DF93EF
:100B0000CDB7DEB7C35AD1090FB6F894DEBF0FBE1A
:100B1000CDBF0E942E106B017C0163E772E086E37B
:100B200093E00E94EF0D10E080E3C80E85E7D81E29
:100B3000E11CF11C0E942E106C157D058E059F0591
:100B400030F163ED73E0CE0101960E941605CE01EF
:100B500001960E946A05123009F061C067E172E0F7
:100B600086E393E00E94EF0D81E0123009F080E00F
:100B7000CD55DF4F0FB6F894DEBF0FBECDBFDF916E
:100B8000CF911F91FF90EF90DF90CF90089583ED6C
:100B900093E00E94C30A892B69F24AE050E0612F7A
:100BA00086E393E00E94730E83ED93E0111129C058
:100BB0000E94DD0A8134910509F0BCCF69E572E03D
:100BC00086E393E00E94EF0D62E370E080E090E046
:100BD0000E945F106AE583ED93E00E94E40D63EDEF
:100BE00073E0CE0101960E941605CE0101960E9487
:100BF0006A0568EC70E080E090E00E945F1011E010
:100C000099CF0E94DD0A8A35910509F093CF6FE3F1
:100C100072E086E393E00E94EF0D12E092CF69EE5E
:100C200071E0CE0182569F4F0E94520FBE01625664
:100C30007F4FCE0101960E942F0F612FCE010196AA
:100C40000E94C50FBC0186E393E00E94010ECE0115
:100C500001960E94850ECE0182569F4F0E94850EFE
:100C600083CFCF93DF9300D000D0CDB7DEB7809194
:100C70008D02823009F480C070F4882309F49AC090
:100C8000813059F126960FB6F894DEBF0FBECDBF66
:100C9000DF91CF910895833009F444C0863090F7F6
:100CA0006AE373E086E393E00E94EF0D83ED93E047
:100CB0000E94260C10928D0268E873E180E090E0BB
:100CC0000E945F1061E08FE20E94971268EE73E06D
:100CD00080E090E00E945F10D5CF68E173E086E38A
:100CE00093E00E94EF0D60E08FE20E94971268EEA1
:100CF00073E080E090E00E945F1026E040E052EC5C
:100D000061E070E083ED93E00E94C40B61EF72E05C
:100D100086E393E00E94EF0D83E080938D021092B2
:100D20008C02B0CF0E947905882351F065ED72E006
:100D300086E393E00E94EF0D82E080938D02A2CFC4
:100D400080918C028F5F80938C02833008F49ACF5D
:100D500084E080938D026DE872E0CE0101960E94DE
:100D6000520FBE016F5F7F4F8EE10E943804CE01AB
:100D700001960E94850E86CF83ED93E00E94C30A00
:100D8000892B81F083ED93E00E94C30A892B51F0F7
:100D900083ED93E00E94DD0A682F86E393E00E94D2
:100DA000770BF0CF87E10E94C512892B09F06ACF3B
:100DB00085E0C3CF87E10E94C512892B09F462CF79
:100DC00081E0BBCF26E040E052EC61E070E086E3DA
:100DD00093E00E94C40B64EF71E080E090E00E9419
:100DE0005F1066ED71E086E393E00E94EF0D61E035
:100DF0008AE00E945B1261E08CE00E945B1261E07D
:100E00008BE00E945B1240E06FEF8FEF0E94B00218
:100E100060E082E00E945B1260E083E00E945B126F
:100E200060E084E00E945B1260E085E00E945B125B
:100E300060E086E00E945B1260E087E00E945B1247
:100E400060E088E00E945B1260E089E00E945B1233
:100E500061E081E20E945B1261E081E30E945B122B
:100E600061E08DE20E945B1261E08BE20E945B1206
:100E700061E087E20E945B1261E089E20E945B12FE
:100E800061E085E20E945B1261E083E20E945B12F6
:100E900061E081E20E94971261E081E30E94971273
:100EA00061E08DE20E94971261E08BE20E9497124E
:100EB00061E087E20E94971261E089E20E94971246
:100EC00061E085E20E94971261E083E20E9497123E
:100ED00062E087E10E945B1261E08FE20E945B1298
:100EE00061E08FE20E9497128AE392E09093B90248
:100EF0008093B80260E081E30E9497124DEC5CECB5
:100F00006CE47FE38AEB92E00E942C0810928E0240
:100F100068EC71E086E393E00C94EF0D82E00E94B0
:100F2000C51283E00E94C51284E00E94C51285E0CC
:100F30000E94C51286E00E94C51287E00E94C51279
:100F400088E00E94C51289E00E94C5120E94DC035D
:100F500087E10C94C5120F931F930E942E1060938B
:100F600088027093890280938A0290938B020E9478
:100F70008E070E94B4030E9403040E94C5020E94CF
:100F800031060E942E100091880210918902209152
:100F90008A0230918B02601B710B820B930B609362
:100FA00084027093850280938602909387021F913A
:100FB0000F9108958AEB92E00E947C0860E386EA34
:100FC00092E00E94F60766EA72E08FE892E00C94E5
:100FD0002608FC0113861586148612861186108653
:100FE0001782168215821482138208951F93CF935D
:100FF000DF93EC01162F60E0812F0E945B12612FBE
:1010000070E0FB01EF50FC4FE491E883FB01E95CE9
:10101000FB4FE491F0E0EE0FFF1FE358FB4F85918B
:1010200094919A838983CE01DF91CF911F910C9483
:10103000E907FC017287618717821086108289E0B8
:10104000838381E08483858386830895FC01168AE7
:10105000158A11820C941908CF93DF93EC01FC01DF
:101060004193519361937193CF010E94290A488162
:1010700059816A817B81CE01805C9F4FDF91CF9146
:101080000C94290A8F929F92AF92BF92CF92DF92D7
:10109000EF92FF920F931F93CF93DF93EC016A01BE
:1010A0007B01590104960E94550AA7019601C701C8
:1010B000B6010E948A156B017C01A5019801C5014A
:1010C000B8010E948A159B01AC01C701B6010E94BC
:1010D0001913AB01BC01CE01805C9F4FDF91CF9112
:1010E0001F910F91FF90EF90DF90CF90BF90AF9046
:1010F0009F908F900C94550A0F931F93CF93DF937B
:10110000EC0100E010E0980140E050E060E87FE38F
:1011100004960E946F0A00E010E0980140E050E061
:1011200060E87FE3CE01805C9F4F0E946F0A40E041
:1011300050E060E87FE3CE010E942C0800E010E060
:101140009801B901A801CE010E944208DF91CF9118
:101150001F910F910895CF92DF92EF92FF92CF935C
:10116000DF93EC016A017B0104960E94450AA70106
:101170009601C701B6010E948A15AB01BC01CE01E0
:10118000805C9F4FDF91CF91FF90EF90DF90CF90E9
:101190000C94450A8F929F92AF92BF92CF92DF92AA
:1011A000EF92FF92CF93DF93EC01805C9F4F0E9400
:1011B000C00A6B017C012496CE010E94C00A4B013B
:1011C0005C01CE010E94C00A9B01AC01C501B401C3
:1011D0000E948A159B01AC01C701B6010E94181339
:1011E0006B017C0120E030E0A9010E94851387FF9C
:1011F00003C0C12CD12C7601C701B601DF91CF917C
:10120000FF90EF90DF90CF90BF90AF909F908F9026
:1012100008950E94CA080C94FD15CF92DF92EF92B8
:10122000FF920F931F93CF93DF93EC01FB01CA0151
:10123000B90167017801F983E8832BED3FE049ECC0
:1012400050E40E948A159B01AC0160E070E080E8E8
:101250009FE30E948A1320E034E244E759E40E94AD
:101260008A156A837B838C839D83CA86DB86EC86A2
:10127000FD86CE86DF86E88AF98ACA8ADB8AEC8A0E
:10128000FD8A0E943A106A8F7B8F8C8F9D8FDF9131
:10129000CF911F910F91FF90EF90DF90CF90089525
:1012A000CF92DF92EF92FF92CF93DF93EC012881F0
:1012B00039812130310559F030F12230310591F07A
:1012C0002330310559F160E070E0CB0104C06A853C
:1012D0007B858C859D85DF91CF91FF90EF90DF908E
:1012E000CF90089520E034E244E759E46A817B819D
:1012F0008C819D810E948A132A853B854C855D8562
:101300000E948A15E8CF2A853B854C855D856A89D0
:101310007B898C899D890E941813DDCF2A853B85A6
:101320004C855D856A897B898C899D890E9418130B
:101330006B017C0120E034E244E759E46A817B815F
:101340008C819D810E948A139B01AC01C701B6016B
:101350000E948A13C0CF4F925F926F927F928F92BA
:101360009F92AF92BF92CF92DF92EF92FF92CF9374
:10137000DF93EC012A013B010E943A106B017C01D2
:101380008A8D9B8DAC8DBD8DA7019601281B390BD5
:101390004A0B5B0BCA01B9010E9438149B01AC01D6
:1013A0002E8B3F8B488F598FCA8EDB8EEC8EFD8E35
:1013B000CA84DB84EC84FD84CE86DF86E88AF98AE1
:1013C0004A8A5B8A6C8A7D8A6A817B818C819D8155
:1013D0000E948A139B01AC012E833F834887598763
:1013E00060E070E080E89FEB0E948A130E94041482
:1013F0004B015C01AC019B0160E070E080E89FE381
:101400000E941813A30192010E948A152B013C012E
:10141000A5019401C701B6010E948A159B01AC0188
:10142000C301B2010E9419136A877B878C879D874D
:10143000CE01DF91CF91FF90EF90DF90CF90BF90E2
:10144000AF909F908F907F906F905F904F900C9493
:101450005009CF93DF93EC01CB01BA012DE33AE0C1
:1014600047E550E40E948A1320E034E244E759E45F
:101470000E948A156A837B838C839D8368A379A3EA
:101480008AA39BA3DF91CF910895CF93DF93EC01C3
:101490006E960E94AB09AB01BC01CE010E94AB0964
:1014A000CE01DF91CF910C945009FC01428B538BFC
:1014B000648B758B46875787608B718B4287538708
:1014C0006487758740AB51AB62AB73AB44A755A73C
:1014D00066A777A740A751A762A773A708954F9261
:1014E0005F926F927F928F929F92AF92BF92EF9294
:1014F000FF920F931F93CF93DF93EC012A013B01DF
:1015000048015901E12CF12C870120E030E040E84E
:101510005FE361E070E00E940D0920E030E040E808
:101520005FE361E070E0CE014E960E940D092DE36D
:101530003AE047E550E4C301B2010E948A1320E07B
:1015400034E244E759E40E948A156A837B838C83E2
:101550009D8368A379A38AA39BA3B501A401CE01AF
:10156000DF91CF911F910F91FF90EF90BF90AF90BF
:101570009F908F907F906F905F904F900C94550A42
:101580004E960C945009FC01918D228D892F90E08C
:10159000805C9F4F821B91098F7399270895FC01EE
:1015A000918D828D981731F0828DE80FF11D858D18
:1015B00090E008958FEF9FEF0895FC01918D828D4B
:1015C000981761F0A28DAE0FBF2FB11D5D968C9163
:1015D000928D9F5F9F73928F90E008958FEF9FEFA2
:1015E0000895FC01538D448D252F30E0842F90E029
:1015F000821B930B541710F0CF960895019708950E
:1016000088EA9CE0892B49F080E090E0892B29F062
:101610000E94A80C81110E9400008FE39DE0892B9D
:1016200049F080E090E0892B29F00E943F0D811164
:101630000E94000080E090E0892B49F080E090E07B
:10164000892B29F00E94000081110E94000080E097
:1016500090E0892B49F080E090E0892B29F00E94EE
:10166000000081110C9400000895FC01A48DA80FC6
:10167000B92FB11DA35ABF4F2C91848D90E00196D4
:101680008F739927848FA689B7892C93A089B189F4
:101690008C91837080648C93938D848D981306C095
:1016A0000288F389E02D80818F7D80830895CF9318
:1016B000DF93EC01888D8823B9F0AA89BB89E8897A
:1016C000F9898C9185FD03C0808186FD0DC00FB620
:1016D00007FCF7CF8C9185FFF2CF808185FFEDCF9E
:1016E000CE010E94350BE9CFDF91CF910895EF92A3
:1016F000FF920F931F93CF93DF93EC0181E0888FCC
:101700009B8D8C8D98131AC0E889F989808185FF9B
:1017100015C09FB7F894EE89FF896083E889F9893D
:1017200080818370806480839FBF81E090E0DF913F
:10173000CF911F910F91FF90EF900895F62E0B8D92
:1017400010E00F5F1F4F0F731127E02E8C8D8E114D
:101750000CC00FB607FCFACFE889F989808185FFB4
:10176000F5CFCE010E94350BF1CFEB8DEC0FFD2FA5
:10177000F11DE35AFF4FF0829FB7F8940B8FEA896F
:10178000FB8980818062CFCFCF92DF92EF92FF9270
:101790001F93CF93DF93EC016A017B01122FE8893D
:1017A000F98982E08083C11481EED806E104F10456
:1017B000A1F060E079E08DE390E0A70196010E943E
:1017C000EE12215031094109510956954795379537
:1017D0002795211580E1380798F0E889F98910826A
:1017E00060E874E88EE190E0A70196010E94EE1295
:1017F000215031094109510956954795379527954B
:10180000EC85FD853083EE85FF852083188EEC897D
:10181000FD891083EA89FB89808180618083EA8960
:10182000FB89808188608083EA89FB898081806868
:101830008083EA89FB8980818F7D8083DF91CF91CE
:101840001F91FF90EF90DF90CF900895CF93DF939B
:10185000EC01E881F9810680F781E02D1995EA898C
:10186000FB8980818F7E8083EA89FB898081877FE5
:101870008083EA89FB8980818F778083EA89FB896D
:1018800080818F7D80838A8D898FDF91CF910895AC
:101890001F920F920FB60F9211240BB60F922F9337
:1018A0008F939F93EF93FF93E0914603F09147034B
:1018B0008081E0914C03F0914D0382FD1DC0908129
:1018C00080914F038F5F8F7320915003821741F0F7
:1018D000E0914F03F0E0EA5CFC4F958F80934F035B
:1018E000FF91EF919F918F912F910F900BBE0F90D1
:1018F0000FBE0F901F9018958081F2CF1F920F920C
:101900000FB60F9211240BB60F922F933F934F9364
:101910005F936F937F938F939F93AF93BF93EF9357
:10192000FF9386E393E00E94350BFF91EF91BF9107
:10193000AF919F918F917F916F915F914F913F9167
:101940002F910F900BBE0F900FBE0F901F90189508
:1019500086E393E00E94C30A21E0892B09F420E08A
:10196000822F0895E6E3F3E01382128288EE93E07B
:10197000A0E0B0E084839583A683B78383E792E0F9
:101980009183808385EC90E09587848784EC90E058
:101990009787868780EC90E0918B808B81EC90E03C
:1019A000938B828B82EC90E0958B848B86EC90E01D
:1019B000978B868B118E128E138E148E08951F9224
:1019C0000F920FB60F9211240BB60F922F938F9395
:1019D0009F93EF93FF93E091E303F091E403808101
:1019E000E091E903F091EA0382FD1DC090818091AE
:1019F000EC038F5F8F732091ED03821741F0E0912C
:101A0000EC03F0E0ED52FC4F958F8093EC03FF91D7
:101A1000EF919F918F912F910F900BBE0F900FBE62
:101A20000F901F9018958081F2CF1F920F920FB6E2
:101A30000F9211240BB60F922F933F934F935F9306
:101A40006F937F938F939F93AF93BF93EF93FF9386
:101A500083ED93E00E94350BFF91EF91BF91AF9121
:101A60009F918F917F916F915F914F913F912F91B6
:101A70000F900BBE0F900FBE0F901F90189583ED27
:101A800093E00E94C30A21E0892B09F420E0822F11
:101A90000895E3EDF3E01382128288EE93E0A0E074
:101AA000B0E084839583A683B78383E792E0918334
:101AB00080838DEC90E0958784878CEC90E097870D
:101AC000868788EC90E0918B808B89EC90E0938BFB
:101AD000828B8AEC90E0958B848B8EEC90E0978BD8
:101AE000868B118E128E138E148E0895AF92BF9234
:101AF000CF92DF92EF92FF920F931F93CF93DF93DA
:101B00006C017B018B01040F151FEB015E01AE1808
:101B1000BF08C017D10759F06991D601ED91FC912A
:101B20000190F081E02DC6011995892B79F7C50147
:101B3000DF91CF911F910F91FF90EF90DF90CF90A9
:101B4000BF90AF900895FB0101900020E9F7319715
:101B5000AF01461B570BDC01ED91FC910280F38134
:101B6000E02D1994EF92FF920F931F93CF93DF9381
:101B70008C017B01D0E0C0E0F701EC0FFD1F649108
:101B8000662361F0D801ED91FC910190F081E02D88
:101B9000C8011995892B11F02196EECFCE01DF9166
:101BA000CF911F910F91FF90EF900895DB01149654
:101BB0004D915C9115976D917C91DC01ED91FC91BB
:101BC0000280F381E02D1994DC01ED91FC910190EC
:101BD000F081E02D199461E872E00C94A30D0F934D
:101BE0001F93CF93DF93EC010E94B20D8C01CE01C5
:101BF0000E94EB0D800F911FDF91CF911F910F91EC
:101C000008950F931F93CF93DF93EC010E94D60D9D
:101C10008C01CE010E94EB0D800F911FDF91CF91BF
:101C20001F910F9108958F929F92AF92BF92EF9262
:101C3000FF920F931F93CF93DF93CDB7DEB7A1979A
:101C40000FB6F894DEBF0FBECDBF7C01FA01CB0109
:101C500019A2223008F42AE08E010F5D1F4F822E58
:101C6000912CB12CA12CBF01A50194010E94EE1270
:101C7000F901CA016A300CF5605DD8016E938D01DF
:101C8000232B242B252B79F790E080E0109721F06F
:101C9000BD01C7010E94A30DA1960FB6F894DEBF47
:101CA0000FBECDBFDF91CF911F910F91FF90EF90AD
:101CB000BF90AF909F908F900895695CDECF211503
:101CC000310541F4DC01ED91FC910190F081E02DB2
:101CD000642F19940C94130E9A01462F50E070E073
:101CE00060E00C945F0E0F931F93CF93DF93EC0192
:101CF0000E946C0E8C01CE010E94EB0D800F911F93
:101D0000DF91CF911F910F910895FC018081918106
:101D1000009711F00C94EE160895CF93DF93EC0129
:101D200088819981009711F00E94EE16198218821D
:101D30001D821C821B821A82DF91CF9108950F931E
:101D40001F93CF93DF93EC018B016F5F7F4F8881EF
:101D500099810E947717009751F0998388831B839C
:101D60000A8381E0DF91CF911F910F91089580E068
:101D7000F9CFCF93DF93EC0188819981892B49F0CA
:101D80008A819B818617970720F081E0DF91CF91B0
:101D90000895CE010E949F0E8823C1F38C819D81FE
:101DA000892B99F7E881F9811082EFCFEF92FF92AA
:101DB0000F931F93CF93DF93EC017B018A01BA014C
:101DC0000E94B90E81110BC0CE010E948D0ECE0172
:101DD000DF91CF911F910F91FF90EF9008951D8398
:101DE0000C83B701888199810E947118F0CFEF921E
:101DF000FF920F931F93CF93DF93EC017B018A0136
:101E0000BA010E94B90E81110BC0CE010E948D0E45
:101E1000CE01DF91CF911F910F91FF90EF90089528
:101E20001D830C83B701888199810E945818F0CFD7
:101E3000CF93DF93EC01FB018617970749F0608190
:101E400071816115710541F0448155810E94D60E62
:101E5000CE01DF91CF9108950E948D0EF9CFFC0144
:101E60001182108213821282158214820C94180F30
:101E70000F931F93CF93DF93EC018B0161157105D5
:101E800071F0CB010E945F18AC01B801CE010E9435
:101E9000F70ECE01DF91CF911F910F9108950E940F
:101EA0008D0EF7CFFC0111821082138212821582EF
:101EB00014820C94380FEF92FF920F931F93CF93DD
:101EC000DF936115710541F480E0DF91CF911F919F
:101ED0000F91FF90EF90089541155105B1F07B01EE
:101EE000EC010C811D81040F151FB8010E94B90E71
:101EF000882351F3288139818C819D81B701820F1C
:101F0000931F0E9471181D830C8381E0DECFEF9236
:101F1000FF920F931F93CF93DF9300D01F92CDB703
:101F2000DEB77C01862F4AE08E010F5F1F4FB8019C
:101F300090E00E947818F80101900020E9F73197AD
:101F4000AF01401B510BB801C7010E945B0F0F90FE
:101F50000F900F900F90DF91CF911F910F91FF90F5
:101F6000EF900895CF93DF93EC01FB0144815581FD
:101F7000608171810E945B0F811103C0CE010E94BC
:101F80008D0ECE01DF91CF910895CF93DF93EC01B9
:101F90000E94870F811103C0CE010E948D0ECE01D9
:101FA000DF91CF910895089508950E9498100E949E
:101FB000D40F0E94E206C0E0DBE00E94AB0720974E
:101FC000E1F30E94000BF9CF1F920F920FB60F9210
:101FD00011242F933F938F939F93AF93BF9380913F
:101FE000710490917204A0917304B09174043091C3
:101FF000700423E0230F2D3758F50196A11DB11D64
:10200000209370048093710490937204A0937304DE
:10201000B09374048091750490917604A091770434
:10202000B09178040196A11DB11D80937504909321
:102030007604A0937704B0937804BF91AF919F91F9
:102040008F913F912F910F900FBE0F901F90189579
:1020500026E8230F0296A11DB11DD2CF2FB7F89409
:102060006091710470917204809173049091740472
:102070002FBF08953FB7F89480917504909176042E
:10208000A0917704B091780426B5A89B05C02F3F96
:1020900019F00196A11DB11D3FBFBA2FA92F982F8E
:1020A0008827BC01CD01620F711D811D911D42E089
:1020B000660F771F881F991F4A95D1F708958F9251
:1020C0009F92AF92BF92CF92DF92EF92FF926B01FD
:1020D0007C010E943A104B015C01C114D104E1045F
:1020E000F104E9F00E94D30F0E943A1068197909AF
:1020F0008A099B09683E73408105910570F321E0D0
:10210000C21AD108E108F10888EE880E83E0981E13
:10211000A11CB11CC114D104E104F10429F7FF9002
:10212000EF90DF90CF90BF90AF909F908F900895E9
:10213000789484B5826084BD84B5816084BD85B5A2
:10214000826085BD85B5816085BDEEE6F0E0808169
:1021500081608083E1E8F0E010828081826080838A
:10216000808181608083E0E8F0E08081816080830D
:10217000E1EBF0E0808184608083E0EBF0E080813F
:1021800081608083E1E9F0E08081826080838081EA
:1021900081608083E0E9F0E0808181608083E1EA12
:1021A000F0E0808182608083808181608083E0EACA
:1021B000F0E0808181608083E1E2F1E080818260F3
:1021C0008083808181608083E0E2F1E080818160B2
:1021D0008083EAE7F0E08081846080838081826090
:1021E0008083808181608083808180688083109279
:1021F000C1000895863308F0865320917B00982F04
:102200009870277F922B90937B0020916E0290E430
:10221000299F900111248770822B80937C008091EC
:102220007A00806480937A0080917A0086FDFCCFEA
:10223000809178009091790008951F93CF93DF9358
:10224000182FEB0161E00E945B12209739F460E0E7
:10225000812FDF91CF911F910C949712CF3FD10521
:1022600011F461E0F5CFE12FF0E0E555FC4FE4918A
:10227000E150E23108F0B3C0F0E08827ED5BFE4E9C
:102280008F4F0C94101355115D1162116C11761162
:10229000EF118011881190119A11A411AE11BD1186
:1022A000C711EF11D111DB11E51184B5806884BD30
:1022B000C7BDDF91CF911F91089584B5806284BD21
:1022C000C8BDF7CF80918000806880938000D09354
:1022D0008900C0938800EDCF809180008062809358
:1022E0008000D0938B00C0938A00E3CF8091800060
:1022F000886080938000D0938D00C0938C00D9CFEC
:102300008091B00080688093B000C093B300D1CFBB
:102310008091B00080628093B000C093B400C9CFB8
:1023200080919000806880939000D0939900C09332
:102330009800BFCF80919000806280939000D093EE
:102340009B00C0939A00B5CF8091900088608093E5
:102350009000D0939D00C0939C00ABCF8091A000D3
:1023600080688093A0008091A0008F7B8093A00064
:10237000D093A900C093A8009CCF8091A000806258
:102380008093A000D093AB00C093AA0092CF80911D
:10239000A00088608093A000D093AD00C093AC00F3
:1023A00088CF80912001806880932001D0932901FB
:1023B000C09328017ECF809120018062809320010C
:1023C000D0932B01C0932A0174CF809120018860A3
:1023D00080932001D0932D01C0932C016ACFC03887
:1023E000D1050CF03ECF33CF8150823108F05AC076
:1023F000E82FF0E08827E050FE4E8F4F0C9410132A
:1024000020122412121218121C12521227122D120C
:10241000311237123B123F124512491252124D121D
:1024200053125712809180008F7780938000089517
:10243000809180008F7DF9CF80918000877FF5CFDC
:1024400084B58F7784BD089584B58F7DFBCF80914F
:10245000B0008F778093B00008958091B0008F7D99
:10246000F9CF809190008F778093900008958091AC
:1024700090008F7DF9CF80919000877FF5CF80917C
:10248000A0008F778093A00008958091A0008F7D99
:10249000F9CF8091A000877FF5CF809120018F77C1
:1024A000809320010895809120018F7DF9CF809144
:1024B0002001877FF5CFCF93DF9390E0FC01EF50B1
:1024C000FC4F2491895C9B4FFC0184918823C9F0C7
:1024D00090E0880F991FFC01EF54FB4FA591B49138
:1024E000FC01E956FB4FC591D49161110DC09FB716
:1024F000F8948C91209582238C93888128232883BB
:102500009FBFDF91CF910895623051F49FB7F89447
:102510003C91822F809583238C93E8812E2BEFCFE3
:102520008FB7F894EC912E2B2C938FBFEACF1F938B
:10253000CF93DF93282F30E0F901E555FC4F8491CC
:10254000F901EF50FC4FD491F901E95CFB4FC491C4
:10255000CC23A9F0162F81110E94F411EC2FF0E08A
:10256000EE0FFF1FE956FB4FA591B4918FB7F8947A
:10257000EC91111108C0D095DE23DC938FBFDF9161
:10258000CF911F910895DE2BF8CFCF93DF93282FA3
:1025900030E0F901E555FC4F8491F901EF50FC4F13
:1025A000D491F901E95CFB4FC491CC23A1F08111D6
:1025B0000E94F411EC2FF0E0EE0FFF1FE358FB4FE9
:1025C000A591B491EC91ED2381E090E009F480E0D5
:1025D000DF91CF91089580E090E0FACFA1E21A2E2A
:1025E000AA1BBB1BFD010DC0AA1FBB1FEE1FFF1FB7
:1025F000A217B307E407F50720F0A21BB30BE40B07
:10260000F50B661F771F881F991F1A9469F760954D
:102610007095809590959B01AC01BD01CF01089507
:10262000EE0FFF1F881F8BBF0790F691E02D1994C6
:102630005058BB27AA270E9430130C94D5140E942F
:10264000C71438F00E94CE1420F039F49F3F19F4DB
:1026500026F40C949D140EF4E095E7FB0C9497146B
:10266000E92F0E94E61458F3BA176207730784072C
:10267000950720F079F4A6F50C9408150EF4E09572
:102680000B2EBA2FA02D0B01B90190010C01CA012C
:10269000A0011124FF27591B99F0593F50F4503ED7
:1026A00068F11A16F040A22F232F342F4427585FC9
:1026B000F3CF469537952795A795F0405395C9F7E1
:1026C0007EF41F16BA0B620B730B840BBAF0915099
:1026D000A1F0FF0FBB1F661F771F881FC2F70EC038
:1026E000BA0F621F731F841F48F48795779567950B
:1026F000B795F7959E3F08F0B0CF9395880F08F0F7
:102700009927EE0F9795879508950E94731408F402
:1027100081E008950E949E130C94D5140E94CE145B
:1027200058F00E94C71440F029F45F3F29F00C9440
:10273000971451110C9409150C949D140E94E614E1
:1027400068F39923B1F3552391F3951B550BBB27E0
:10275000AA2762177307840738F09F5F5F4F220F25
:10276000331F441FAA1FA9F335D00E2E3AF0E0E81C
:1027700032D091505040E695001CCAF72BD0FE2F66
:1027800029D0660F771F881FBB1F261737074807FA
:10279000AB07B0E809F0BB0B802DBF01FF279358B2
:1027A0005F4F3AF09E3F510578F00C9497140C94CB
:1027B00009155F3FE4F3983ED4F3869577956795C6
:1027C000B795F7959F5FC9F7880F911D96958795E7
:1027D00097F90895E1E0660F771F881FBB1F621706
:1027E00073078407BA0720F0621B730B840BBA0BC4
:1027F000EE1F88F7E095089529F416F00C949714CD
:102800000C9408150C949D140E94EE14A8F39638AD
:10281000A0F707F80F92E8942BE33AEA48EB5FE75A
:102820000E94A0150F920F920F924DB75EB70F92B4
:102830000E945615E4EEF0E00E94A0144F915F91C3
:10284000EF91FF91E595EE1FFF1F49F0FE57E068FD
:102850004427EE0F441FFA95E1F74195550B0E946E
:1028600020150F9007FE0C9414150895E89409C0E4
:1028700097FB3EF490958095709561957F4F8F4FB3
:102880009F4F9923A9F0F92F96E9BB279395F695C9
:10289000879577956795B795F111F8CFFAF4BB0F47
:1028A00011F460FF1BC06F5F7F4F8F4F9F4F16C0AB
:1028B000882311F096E911C0772321F09EE8872F35
:1028C000762F05C0662371F096E8862F70E060E0F1
:1028D0002AF09A95660F771F881FDAF7880F96956A
:1028E000879597F90895990F0008550FAA0BE0E80E
:1028F000FEEF16161706E807F907C0F012161306C2
:10290000E407F50798F0621B730B840B950B39F401
:102910000A2661F0232B242B252B21F408950A2667
:1029200009F4A140A6958FEF811D811D089597F9A7
:102930009F6780E870E060E008959FEF80EC089565
:10294000DF93CF931F930F93FF92EF92DF927B0160
:102950008C01689406C0DA2EEF010E949D15FE01DD
:10296000E894A5912591359145915591A6F3EF01F4
:102970000E943013FE019701A801DA9469F7DF90F5
:10298000EF90FF900F911F91CF91DF910895002458
:102990000A941616170618060906089500240A94C4
:1029A00012161306140605060895092E0394000C4A
:1029B00011F4882352F0BB0F40F4BF2B11F460FFD9
:1029C00004C06F5F7F4F8F4F9F4F089557FD905802
:1029D000440F551F59F05F3F71F04795880F97FBE3
:1029E000991F61F09F3F79F087950895121613069D
:1029F0001406551FF2CF4695F1DF08C016161706CC
:102A00001806991FF1CF8695710561050894089500
:102A1000E894BB2766277727CB0197F908950E9492
:102A2000731408F48FEF08959B01AC0160E070E02F
:102A300080E89FE30C948A130C9497140C943D1631
:102A40000E94EE14D8F39923C9F3940F511DA3F3F8
:102A50009150504094F059F0882332F0660F771F60
:102A6000881F91505040C1F79E3F51052CF7880FA9
:102A7000911D9695879597F908955F3FACF0983E24
:102A80009CF0BB27869577956795B79508F4B1605C
:102A90009395C1F7BB0F58F711F460FFE8CF6F5F54
:102AA0007F4F8F4F9F4FE3CF0C940915FA01DC0144
:102AB000AA0FBB1F9B01AC01BF5728F42227332765
:102AC0004427507820C0B75190F4AB2F002446958E
:102AD00037952795011CA395D2F3002071F0220FA2
:102AE000331F441FB395DAF30ED00C9418136130E2
:102AF0007105A0E88A07B94630F49B01AC0166274E
:102B0000772788279078309621F02083318342837D
:102B1000538308950E949D150C94D5140E94C714E8
:102B200038F00E94CE1420F0952311F00C949714E5
:102B30000C949D1411240C9409150E94E61470F352
:102B4000959FC1F3950F50E0551F629FF001729F52
:102B5000BB27F00DB11D639FAA27F00DB11DAA1F61
:102B6000649F6627B00DA11D661F829F2227B00DAE
:102B7000A11D621F739FB00DA11D621F839FA00D39
:102B8000611D221F749F3327A00D611D231F849F89
:102B9000600D211D822F762F6A2F11249F575040E0
:102BA0009AF0F1F088234AF0EE0FFF1FBB1F661F5B
:102BB000771F881F91505040A9F79E3F510580F024
:102BC0000C9497140C9409155F3FE4F3983ED4F3EA
:102BD000869577956795B795F795E7959F5FC1F7C8
:102BE000FE2B880F911D9695879597F9089519F4F6
:102BF00016F40C949D140C943D160E94EE14B8F338
:102C00009923C9F3B6F39F57550B87FF0E944B16C4
:102C10000024A0E640EA900180585695979528F444
:102C2000805C660F771F881F20F02617370748073C
:102C300030F4621B730B840B202931294A2BA69593
:102C400017940794202531254A2758F7660F771FD8
:102C5000881F20F026173707480730F4620B730BE4
:102C6000840B200D311D411DA09581F7B901842FE2
:102C70009158880F9695879508959F3F31F0915010
:102C800020F4879577956795B795880F911D969550
:102C9000879597F9089591505040660F771F881FC8
:102CA000D2F708950F931F93CF93DF93823091054E
:102CB00010F482E090E0E0917B04F0917C0430E03D
:102CC00020E0B0E0A0E0309799F42115310509F437
:102CD0004AC0281B390B24303105D8F58A819B81E5
:102CE0006115710589F1FB0193838283FE0111C097
:102CF000408151810281138148175907E0F048173C
:102D0000590799F4109761F012960C931297139645
:102D10001C933296CF01DF91CF911F910F910895AF
:102D200000937B0410937C04F4CF2115310551F0FE
:102D30004217530738F0A901DB019A01BD01DF01F9
:102D4000F801C1CFEF01F9CF90937C0480937B040D
:102D5000CDCFFE01E20FF31F8193919322503109F1
:102D600039832883D7CF2091790430917A04232B9B
:102D700041F4209102023091030230937A042093AF
:102D8000790420910002309101022115310541F4AE
:102D90002DB73EB74091040250910502241B350B1C
:102DA000E0917904F0917A04E217F307A0F42E1B66
:102DB0003F0B2817390778F0AC014E5F5F4F24179F
:102DC000350748F04E0F5F1F50937A044093790403
:102DD000819391939FCFF0E0E0E09CCFCF93DF937E
:102DE0000097E9F0FC01329713821282A0917B04D4
:102DF000B0917C04ED0130E020E01097A1F4208137
:102E00003181820F931F2091790430917A04281721
:102E1000390709F061C0F0937A04E0937904DF91F7
:102E2000CF910895EA01CE17DF07E8F54A815B816B
:102E30009E0141155105B1F7E901FB83EA834991F0
:102E40005991C40FD51FEC17FD0761F48081918162
:102E50000296840F951FE90199838883828193816B
:102E60009B838A83F0E0E0E012968D919C9113970A
:102E70000097B9F52D913C911197CD010296820FE3
:102E8000931F2091790430917A042817390739F675
:102E9000309751F510927C0410927B04B0937A0421
:102EA000A0937904BCCFD383C28340815181840F26
:102EB000951FC817D90761F44E5F5F4F88819981CC
:102EC000480F591F518340838A819B81938382835A
:102ED0002115310509F0B0CFF0937C04E0937B0419
:102EE0009ECFFD01DC01C0CF13821282D7CF4F925B
:102EF0005F926F927F928F929F92AF92BF92CF928A
:102F0000DF92EF92FF920F931F93CF93DF938C0189
:102F1000009799F4CB01DF91CF911F910F91FF9012
:102F2000EF90DF90CF90BF90AF909F908F907F9069
:102F30006F905F904F900C945216FC01E60FF71FB4
:102F40009C0122503109E217F30708F4AEC0D90101
:102F5000CD91DC911197C617D70720F1C530D10567
:102F600078F0CE0104978617970750F0C61BD70B51
:102F70002297C193D1936D937C93CF010E94EE165B
:102F8000C801DF91CF911F910F91FF90EF90DF90DB
:102F9000CF90BF90AF909F908F907F906F905F90F9
:102FA0004F9008955B01AC1ABD0A4C018C0E9D1E1A
:102FB000A0917B04B0917C04512C412CF12CE12C8C
:102FC000109731F58091790490917A0488159905CC
:102FD00009F05CC04616570608F058C08091000200
:102FE00090910102009741F48DB79EB74091040281
:102FF00050910502841B950BE817F90708F055C09E
:10300000F0937A04E0937904F90171836083B8CF77
:103010008D919C91119712966C90129713967C90BB
:103020001397A815B90559F56C0142E0C40ED11CDF
:10303000CA14DB0420F1AC014A195B09DA011296CB
:10304000159780F06282738251834083D9016D931A
:103050007C93E114F10471F0D7011396FC93EE9385
:1030600012978ECF22968C0F9D1FF901918380833A
:10307000F301EFCFF0937C04E0937B0481CF4816FB
:10308000590608F42C017D01D3019ACFCB010E948F
:1030900052167C01009749F0AE01B8010E946818F1
:1030A000C8010E94EE1687016BCF10E000E068CFE8
:1030B000FB01DC0105900D920020E1F70895FC0171
:1030C00005900020E9F7809590958E0F9F1F089539
:1030D000FB01DC0102C001900D9241505040D8F735
:1030E0000895FB01DC0101900D920020E1F70895A5
:1030F000BB274A3031F4992322F4BDE290958195A3
:103100009F4F0C948418BB27FB015527AA27880FD3
:10311000991FAA1FA41710F0A41B83955051B9F74B
:10312000A05DAA3308F0A95DA193009779F7B111CA
:10313000B1931192CB010C949D18DC01FC01672F17
:1031400071917723E1F7329704C07C916D9370837E
:0E3150006291AE17BF07C8F30895F894FFCF41
:10315E0000007D048000F4010200FF00000000006A
:10316E000000000000000000000000000000000051
:10317E000000000000000000000000000000000041
:10318E0000000000000000000000DC050500FF004C
:10319E000000FF000000FFFFFFFF00000000000026
:1031AE000000000000000000000000000000000011
:1031BE000000000000000000000000000000010000
:1031CE00000000770B760DF10A570BC30ADD0ACF0C
:0431DE000A0D0A00CC
:00000001FF
